:1000000012C021C020C01FC01EC01DC01CC01BC00C
:100010001AC02DC018C017C016C015C0FDC013C02F
:1000200012C011C010C011241FBECFE5D4E0DEBF46
:10003000CDBF20E0A0E6B0E001C01D92A436B2071B
:10004000E1F736D17CC1DCCF80E687B98DEF86B988
:10005000089583E083BF89B7816089BF10926000F3
:1000600010926100109262001092630008951F9236
:100070000F920FB60F921124369A0F900FBE0F9069
:100080001F90189587E189B988E18AB986E880BD13
:1000900008955D9BFECF8CB90895CF93DF93EC015B
:1000A0008881882329F02196F4DF89918111FCCF82
:1000B0008DE0EFDF8AE0EDDFDF91CF9108958F9241
:1000C0009F92AF92BF92CF92DF92EF92FF92CF9327
:1000D0004B015C0120E836E948E950E00ED180E3AD
:1000E000820FD7DFC501B40120E432E44FE050E0D5
:1000F00004D10F2EFAE0CF2ED12CE12CF12CF02DD3
:10010000CA01B901A7019601F8D080E3860FC1DFCB
:10011000C501B40120EA36E841E050E0EED0CA0162
:10012000B901A7019601E9D080E3860FB2DFC501CE
:10013000B40120E137E240E050E0DFD0CA01B9016C
:10014000A7019601DAD080E3860FA3DFC501B401D1
:1001500028EE33E040E050E0D0D0CA01B901A70159
:100160009601CBD080E3860F94DFC501B40124E66D
:1001700030E040E050E0C1D0CA01B901A7019601CA
:10018000BCD080E3860F85DFC501B401A7019601CD
:10019000B4D0C62FCA01B901A7019601AED080E341
:1001A000860F77DF80E38C0F74DFCF91FF90EF90A5
:1001B000DF90CF90BF90AF909F908F900895CF9396
:1001C000DF93D82F89E2D89F812D112482958F70DB
:1001D000805D5FDF9DECD99FC12D1124C695C6952A
:1001E000C695C99F912D1124969596959695990F30
:1001F000892F880F880F980F8C2F891B805D49DF0E
:10020000CC0F8C2F880F880FC80F8D2F8C1B805D13
:1002100040DFDF91CF9108951F920F920FB60F929A
:1002200011242F933F934F935F936F937F938F93FB
:100230009F93AF93BF93CF93EF93FF93C5B18091FB
:10024000600090916100A0916200B0916300BC01D8
:10025000CD016F5F7F4F8F4F9F4F60936000709312
:100260006100809362009093630029DF8BE311DFCC
:100270008C2FA5DF8DE00DDF8AE00BDF8C2F90E067
:100280000F971CF48FEF88BB01C018BAFF91EF9154
:10029000CF91BF91AF919F918F917F916F915F911E
:1002A0004F913F912F910F900FBE0F901F90189577
:1002B000CF93DF93CDB7DEB764970FB6F894DEBF68
:1002C0000FBECDBF8FEF87BBBFDEC3DE7894DADE13
:1002D00082E7898385E68A8381E68B8384E68C8343
:1002E00089E78D831E825F9BFECFCE010196D5DE0E
:1002F0005F9BFECF8CB1CDDEFBCFA1E21A2EAA1BF5
:10030000BB1BFD010DC0AA1FBB1FEE1FFF1FA217C5
:10031000B307E407F50720F0A21BB30BE40BF50BC2
:10032000661F771F881F991F1A9469F7609570954B
:10033000809590959B01AC01BD01CF010895F89483
:02034000FFCFED
:00000001FF
