:1000000012C021C020C01FC01EC01DC01CC01BC00C
:100010001AC02DC018C017C016C015C07DC013C0AF
:1000200012C011C010C011241FBECFE5D4E0DEBF46
:10003000CDBF20E0A0E6B0E001C01D92A436B2071B
:10004000E1F7BED0E2C0DCCF80E687B98DEF86B99C
:10005000089583E083BF89B7816089BF10926000F3
:1000600010926100109262001092630008951F9236
:100070000F920FB60F921124369A0F900FBE0F9069
:100080001F90189587E189B988E18AB986E880BD13
:1000900008955D9BFECF8CB90895CF93DF93EC015B
:1000A0008881882329F02196F4DF89918111FCCF82
:1000B0008DE0EFDF8AE0EDDFDF91CF910895CF9300
:1000C000DF93D82F89E2D89F812D112482958F70DC
:1000D000805DDFDF9DECD99FC12D1124C695C695AB
:1000E000C695C99F912D1124969596959695990F31
:1000F000892F880F880F980F8C2F891B805DC9DF8F
:10010000CC0F8C2F880F880FC80F8D2F8C1B805D14
:10011000C0DFDF91CF9108951F920F920FB60F921B
:1001200011241F932F933F934F935F936F937F936C
:100130008F939F93AF93BF93EF93FF93CF93DF93EF
:1001400000D0CDB7DEB715B180916000909161000D
:10015000A0916200B09163000196A11DB11D809332
:10016000600090936100A0936200B09363008BE302
:1001700089831A82CE01019690DF812FA0DFCE0104
:1001800002968BDF812F90E00F971CF48FEF88BBD6
:1001900001C018BA0F900F90DF91CF91FF91EF91AE
:1001A000BF91AF919F918F917F916F915F914F918F
:1001B0003F912F911F910F900FBE0F901F90189598
:1001C000CF93DF93CDB7DEB764970FB6F894DEBF59
:1001D0000FBECDBF8FEF87BB37DF3BDF789452DF99
:1001E00082E7898385E68A8381E68B8384E68C8334
:1001F00089E78D831E825F9BFECFCE0101964DDF86
:0E0200005F9BFECF8CB145DFFBCFF894FFCFA4
:00000001FF
