:1000000012C021C020C01FC01EC01DC01CC01BC00C
:100010001AC019C018C017C016C015C064C013C0DC
:1000200012C011C010C011241FBECFE5D4E0DEBF46
:10003000CDBF20E0A0E6B0E001C01D92A036B2071F
:10004000E1F78DD0B0C0DCCF80E687B98DEF86B9FF
:10005000089587E189B988E18AB986E880BD089565
:100060005D9BFECF8CB90895CF93DF93EC0188811F
:10007000882329F02196F4DF89918111FCCF8DE04E
:10008000EFDF8AE0EDDFDF91CF910895CF93DF932B
:10009000D82F89E2D89F812D112482958F70805DA1
:1000A000DFDF9DECD99FC12D1124C695C695C6955D
:1000B000C99F912D1124969596959695990F892F04
:1000C000880F880F980F8C2F891B805DC9DFCC0F9C
:1000D0008C2F880F880FC80F8D2F8C1B805DC0DF81
:1000E000DF91CF9108951F920F920FB60F921124B6
:1000F0001F932F933F934F935F936F937F938F93B0
:100100009F93AF93BF93EF93FF93CF93DF931F9290
:10011000CDB7DEB715B11982812FB8DFCE010196B8
:10012000A3DF812F90E00F971CF48FEF88BB01C0F5
:1001300018BA369A0F90DF91CF91FF91EF91BF914E
:10014000AF919F918F917F916F915F914F913F916F
:100150002F911F910F900FBE0F901F901895CF9366
:10016000DF93CDB7DEB764970FB6F894DEBF0FBE4E
:10017000CDBF8FEF87BB68DF78946BDF82E7898321
:1001800085E68A8381E68B8384E68C8389E78D8389
:100190001E825F9BFECFCE01019666DF5F9BFECF86
:0A01A0008CB15EDFFBCFF894FFCFB7
:00000001FF
